:020000040800F2
:10B000001807002045B100084DB100084FB10008F5
:10B0100051B1000853B1000855B10008000000000C
:10B0200000000000000000000000000057B1000810
:10B0300059B10008000000005BB1000889BC00089D
:10B040005FB100085FB100085FB100085FB10008A0
:10B050005FB100085FB10008EBB500083FB600081B
:10B0600045B600084BB6000851B60008F5B3000815
:10B070000DB400085FB100085FB100085FB10008BF
:10B080005FB100085FB100085FB100085FB1000860
:10B090005FB100085FB100085FB1000857B6000853
:10B0A0005FB100085FB100085FB100085FB1000840
:10B0B0005FB10008DDBC00085FB100085FB10008A7
:10B0C0005FB100085FB100085FB100085FB1000820
:10B0D0005FB1000849D100085FB10008A1D10008A4
:10B0E000F1B500085FB100085FB100085FB100086A
:10B0F0005FB100085FB100085FB100085FB10008F0
:10B100005FB100085FB100085FB100085FB10008DF
:10B1100025C100087DC100085FB100085FB10008CB
:10B120005FB100085FB100085FB100085FB10008BF
:10B13000DFF80CD000F018F80048004769D4000888
:10B14000180700200648804706480047FEE7FEE74C
:10B15000FEE7FEE7FEE7FEE7FEE7FEE7FEE7FEE7C7
:10B160008DBC000831B10008064C074D06E0E068D0
:10B1700040F0010394E8070098471034AC42F6D33E
:10B18000FFF7DAFF68D9000888D9000870B58C1875
:10B1900010F8015B15F0070301D110F8013B2A11EB
:10B1A00006D110F8012B03E010F8016B01F8016BD8
:10B1B0005B1EF9D12B0705D40023521E0DD401F8D4
:10B1C000013BFAE710F8013BCB1A921C03E013F89D
:10B1D000015B01F8015B521EF9D5A142D8D30020D2
:10B1E00070BD0029816802D041F0010101E021F029
:10B1F0000101816070470029816802D041F48071AB
:10B2000001E021F480718160704701460020896867
:10B21000490700D5012070470146002089680907C9
:10B2200000D501207047000010B542680E4B0C7924
:10B230001A400B6842EA04221343436083680B4AB6
:10B240001340D1E9024222434C7943EA44031A43B2
:10B250008260C26A097C22F47002491EC9B242EAC5
:10B260000151C16210BD0000FFFEF0FFFDF7F1FFCC
:10B2700070B5072409290AD9C568A1F10A0606EBA9
:10B280004606B440A543B3401D43C56007E00569C9
:10B2900001EB4106B440A543B3401D4305611F23A4
:10B2A000072A09D2446B521E02EB820293409C4350
:10B2B00091400C43446370BD0D2A09D2046BD21F28
:10B2C00002EB820293409C4391400C43046370BDA7
:10B2D000C46A0D3A02EB820293409C4391400C43B6
:10B2E000C46270BD816841F0080181607047002927
:10B2F000816802D041F4A00101E021F4A001816045
:10B300007047816841F004018160704770B523493E
:10B3100000220B460D790324DB78052D09D2DFE8E6
:10B3200005F003090E121D00FF2801D1012004E0E1
:10B33000CA7070BDFF2808D10220087170BD20B905
:10B34000CA700C7170BD032801D00A71F0E7DB1CD4
:10B350008C71CB70042008714A7170BD8E790F4DCD
:10B360004C793435761EB44206DA28551844C87034
:10B3700004F101044C7170BDFDD16FEA0303DBB22F
:10B38000CB70834206D1287820B96878C871086BE1
:10B39000401C0863CA704A710A7170BD9400002095
:10B3A00030B51048427801788A421AD00E4A1368A4
:10B3B00043F480431360C1EBC10202EB42040B4B28
:10B3C0000B4AE5186D1C95621B5D1362D36943F04F
:10B3D0000103D361491CC9B20170142901D10021B4
:10B3E000017030BD6B0000200C180140500100209E
:10B3F0000000024010B5022000F0AAF8002804D096
:10B40000BDE81040012000F019B810BD094810B582
:10B41000016889060DD510214160C16921F0010143
:10B42000C161642001F085FE0348016821F4804178
:10B43000016010BD000002400C180140C10002D59F
:10B44000024908607047024948607047040402409E
:10B45000000002400029016802D041F0010102E031
:10B460004FF6FE72114001607047000001684FF610
:10B47000FE72114001600021016041608160C16085
:10B480003149314A0839904203D1486840F00F00F1
:10B4900006E02D4A1432904204D1486840F0F00092
:10B4A00048607047284A2832904203D1486840F4E7
:10B4B0007060F5E7244A3C32904203D1486840F47A
:10B4C0007040EDE7204A5032904203D1486840F482
:10B4D0007020E5E71C4A6432904203D1486840F48A
:10B4E0007000DDE7184A7832904203D1486840F096
:10B4F0007060D5E7154A111F904203D1086840F0EB
:10B500000F0006E0114A1432904204D1086840F05E
:10B51000F000086070470D4A2832904203D1086855
:10B5200040F47060F5E7094A3C32904203D1086864
:10B5300040F47040EDE7054A50329042EAD1086885
:10B5400040F47020E5E700000800024008040240D3
:10B5500001460020CA0001D5034A00E0034A1268F0
:10B560000A4200D00120704700040240000002405F
:10B57000002A026801D00A4300E08A430260704753
:10B5800030B5036847F6F07293430C6A8A68224329
:10B59000D1E904452C4322438C692243CC692243E0
:10B5A0004C6A22438C6A22431A430260CA68426092
:10B5B0000A6882604968C16030BD4FF4FA5206E003
:10B5C000401E80B20021491C89B29142FBD3002861
:10B5D000F6D1704706E0401E80B20021491C89B2B6
:10B5E0000829FBD30028F6D17047012000F068B885
:10B5F00010B54FF48064204600F052F8C8B96400DA
:10B60000204600F04DF8A0B96400204600F048F84C
:10B6100078B96400204600F043F850B96400204631
:10B6200000F03EF828B96400204600F039F8002800
:10B6300004D02046BDE8104000F042B810BD022002
:10B6400000F03EB8042000F03BB8082000F038B805
:10B65000102000F035B810B5202000F021F808B116
:10B66000202018E0402000F01BF808B1402012E034
:10B67000802000F015F808B180200CE04FF48074B1
:10B68000204600F00DF828B96400204600F008F8C4
:10B69000002804D02046BDE8104000F011B810BDCD
:10B6A000064A014600201268044B0A4014331B6806
:10B6B0000B4202D0002A00D0012070470004014054
:10B6C00010B504460348016809B12046884702487E
:10B6D000046010BD640000201404014030B54348EC
:10B6E000002103460164D3E90A42056A4FF47A71E6
:10B6F0005B6A8D4206DA8B4210DA8C4219DA8A4292
:10B7000014DB1EE08D4207DD8B4220DA8C4258DAD2
:10B710008A4234DA012108E08D4216DA8B4206DDD6
:10B720008C4234DA8A4256DA0221016430BD8B42FF
:10B730002BDA8C4203DD8A4217DA0321F5E78C42CB
:10B7400011DA8A42F2DD0421EFE78D4207DD8B42F8
:10B7500011DD8C4225DA8A423DDA0521E5E78D428A
:10B7600007DA8B4211DA8C4235DD8A42DEDD0621B2
:10B77000DBE78D4207DD8B4211DA8C4221DA8A4207
:10B78000D4DD0721D1E78D4207DA8B4219DD8C42E7
:10B7900021DD8A420FDA0821C7E78D4207DD8B429F
:10B7A0000FDD8C4217DD8A4205DA0921BDE78B42A5
:10B7B00007DD8C420FDD8A42B8DD8D4205DA0A21B1
:10B7C000B3E78C4207DD8A42B0DD8D42AEDD8B42AD
:10B7D00005DA0B21A9E78A42A8DD8D42A6DD8B425E
:10B7E000A4DD8C42A2DA0C219FE70000D0000020EB
:10B7F00010B58A0721F003040649130F21440F22D4
:10B800008C689A4094438C608A68984002438A60AE
:10B8100010BD000000000140F0B5CA78002502F01C
:10B820000F03D20601D58A7813430A784FF00F0E22
:10B8300012F0FF0F4FF001021CD004680F8802FACB
:10B8400005F63740B74211D14FEA850C0EFA0CF7D6
:10B8500024EA070703FA0CF43C43CF78282F02D0E0
:10B86000482F02D002E0466100E006616D1C082D01
:10B87000E4D304600C88FF2C1ED944685FF00006F6
:10B8800006F1080702FA07F50F882F40AF420FD1E3
:10B890004FEA860C0EFA0CF7BC4303FA0CF73C4354
:10B8A000CF78282F00D14561CF78482F00D105618E
:10B8B000761C082EE4D34460F0BD0000F0B5144CB3
:10B8C000002801DAE36900E06368420D120185B2E5
:10B8D000C0F301579540C0F30346032F05D0C202C1
:10B8E0000AD50322B240934307E023F070626368F5
:10B8F00023F07063636002E0AB4343F0706201B118
:10B900002A43002801DAE261F0BD6260F0BD000068
:10B91000000001404161704770B5154A0E464FF472
:10B9200080740146146000BF00BF00BF4FF4007078
:10B93000106000BF00BF00BF4FF4006010604310F4
:10B94000136000BF00BF00BF094D2D1F286000BF5E
:10B9500000BF00BF084600F025F900BF00BF00BFD0
:10B96000304600F01FF900BF00BF00BF2C6070BD63
:10B970001414014030B511494FF480750D6000BFBB
:10B9800000BF00BF0D4C4FF40072241F226000BFA7
:10B9900000BF00BF4FF400620A6053100B6000BF8D
:10B9A00000BF00BF226000BF00BF00BF00F0FAF878
:10B9B00000BF00BF00BF256030BD0000141401406F
:10B9C00008B50121102000F08DF80121202000F0A1
:10B9D00089F80D494FF48070086010208DF803003D
:10B9E00003208DF80200C020ADF80000694607482A
:10B9F000FFF712FF4FF47060ADF80000024869468F
:10BA00001038FFF709FF08BD101401400010014075
:10BA100070B50F23C47801780122F4B1144C246866
:10BA2000457804F4E064C4F5E064240AC4F1040633
:10BA3000E3408478B5401C402C4301F1E021230110
:10BA400081F80034007800F01F018A40400980002E
:10BA500000F1E020C0F8002170BD01F01F0082401D
:10BA60004809800000F1E020C0F8802170BD00008E
:10BA70000CED00E0024908430249086070470000ED
:10BA80000000FA050CED00E0024A114001430248B3
:10BA90000160704780FFFF1F08ED00E0044A0029A5
:10BAA000516901D0014300E08143516170470000BA
:10BAB00000100240044A0029D16901D0014300E08E
:10BAC0008143D1617047000000100240044A002900
:10BAD000116901D0014300E081431161704700000A
:10BAE00000100240044A0029916901D0014300E09E
:10BAF000814391617047000000100240044A002910
:10BB0000D16801D0014300E08143D160704700005B
:10BB10000010024030B51F494A6812F00C031E4A5B
:10BB200003D0042B01D0082B21D002604A680F23D8
:10BB30001A4C03EA1212A35C0268DA4042604B68B6
:10BB4000072505EA1323E35C22FA03F383604B68BD
:10BB500005EAD323E35CDA40C2604968032303EAC1
:10BB60009131231F595CB2FBF1F1016130BD4A688C
:10BB70004B6802F470124FF0020413F4803F04EBA0
:10BB8000924202D04B689B0301D5054B00E0024B6B
:10BB90005A43CAE70010024000127A000400002055
:10BBA00000093D0070B50D4B00211C15DA141D1F56
:10BBB0001A60060601D52C6000E01C6000BF00BFC3
:10BBC00000BF2A604006000E00BF00BF00BF491C36
:10BBD000C9B20829ECD32A602C6070BD141401404E
:10BBE0000CB50021264801910091026842F4803290
:10BBF00002604FF4A063026802F400320092019ADE
:10BC0000521C0192009A12B9019A9A42F3D1026829
:10BC1000920333D5012100911A490A6842F01002BB
:10BC20000A600A6822F003020A600A6842F002020F
:10BC30000A604168416041684160416841F4806147
:10BC40004160416821F47C114160416841F4E81190
:10BC50004160016841F08071016001688901FCD593
:10BC6000416821F003014160416841F002014160F7
:10BC70004168C1F381010229FAD10CBD00910CBDCC
:10BC80000010024000200240FFF78ABB0F4810B5A9
:10BC9000016841F00101016041680D4A11404160B5
:10BCA00001680C4A11400160016821F480210160A3
:10BCB000416821F4FE0141604FF41F018160FFF7EC
:10BCC0008FFF05494FF00060086010BD0010024072
:10BCD0000000FFF8FFFFF6FE08ED00E000F028BFCF
:10BCE000C943018270470029018802D041F0010157
:10BCF00001E021F0010101807047002930F8441F64
:10BD000002D041F4004101E0C1F30E01018070470F
:10BD10004B4910B5884202D10121C41486E0B0F12C
:10BD2000804F09D0474988420DD101210220FFF7F9
:10BD3000CDFE0021022064E001210846FFF7C6FE87
:10BD4000002101205DE04049884206D10121042004
:10BD5000FFF7BCFE0021042053E03C49884206D195
:10BD600001210820FFF7B2FE0021082049E03849F0
:10BD7000884206D101211020FFF7A8FE00211020E3
:10BD80003FE03449884206D101212020FFF79EFE82
:10BD90000021202035E03049884202D1012144149D
:10BDA00044E02E49884202D10121CC043EE02C49D6
:10BDB000884202D101210C0538E02A49884202D18B
:10BDC00001214C0532E02849884206D1012140205A
:10BDD000FFF77CFE0021402013E02449884206D171
:10BDE00001218020FFF772FE0021802009E0204918
:10BDF00088420AD1841501212046FFF767FE002101
:10BE00002046BDE81040FFF761BE1A49884202D1C2
:10BE100001210C040AE01849884202D101214C0496
:10BE200004E0164988420AD101218C042046FFF71C
:10BE300065FE2046BDE810400021FFF75FBE10BD43
:10BE4000002C01400004004000080040000C0040AD
:10BE5000001000400014004000340140004C01403C
:10BE6000005001400054014000180040001C0040F8
:10BE700000200040004001400044014000480140D3
:10BE800002460020138A92890B4202EA010202D084
:10BE9000002A00D001207047002A828901D00A437D
:10BEA00000E08A438281704730B5028C22F00102A3
:10BEB0000284028C8388048B22F0020224F0730532
:10BEC0000C882C430D8915434A882A43114DA842FA
:10BED0000BD0114DA84208D0104DA84205D0104DEE
:10BEE000A84202D00F4DA8420DD122F008054A8980
:10BEF00023F440732A4322F004058A882A438D895B
:10BF00001D43CB892B4383800483C98881860284A7
:10BF100030BD0000002C01400034014000400140D1
:10BF2000004401400048014070B5028C22F010022C
:10BF30000284028C8488038B0D8823F4E6464FF636
:10BF4000FF7303EA052535430E8922F0200203EA38
:10BF5000061616434A8803EA02123243104EB042D4
:10BF600002D0104EB04215D122F080064A8924F446
:10BF7000406403EA0212324322F040068A8803EA50
:10BF8000021232438E8903EA86062643CC8903EAED
:10BF90008404344384800583C9880187028470BD8A
:10BFA000002C01400034014070B5028C22F48072F4
:10BFB0000284028C8488838B0D8823F073031D43D5
:10BFC00022F400730E894FF6FF7202EA06261E4322
:10BFD0004B8802EA03233343104EB04202D0104E86
:10BFE000B04215D123F400664B8924F4405402EA90
:10BFF0000323334323F480668B8802EA032333430D
:10C000008E8902EA06162643CC8902EA04143443D8
:10C0100084808583C9888187038470BD002C01409A
:10C020000034014070B5028C22F480520284048CEA
:10C030008288838B0D8823F4E6464FF6FF7303EA6C
:10C040000525354324F400560C8903EA04343443AF
:10C050004E8803EA06362643094CA04202D0094C1A
:10C06000A04205D122F480448A8903EA8212224345
:10C0700082808583C988A0F84010068470BD0000C6
:10C08000002C01400034014030B502881B4B1C4C91
:10C0900098420DD0A0420BD0B0F1804F08D0194D7E
:10C0A000A84205D0184DA84202D0184DA84203D18D
:10C0B00022F070054A882A43154DA84206D0154D36
:10C0C000A84203D022F44075CA882A4302808A8895
:10C0D00082850A88028598420AD0A04208D00E4A7A
:10C0E000904205D00D4A904202D00D4A904201D1B3
:10C0F000097A01860121818230BD0000002C0140B7
:10C10000003401400004004000080040000C0040E2
:10C110000010004000140040004001400044014075
:10C120000048014070B5134C40F225552946204681
:10C1300001F08DF801280CD12946204601F059F86C
:10C140000D4D286828B1204601F00EF92968C0B2CB
:10C1500088470821204601F073F8012808D10821FA
:10C16000204601F043F82046BDE8704001F0FCB8DD
:10C1700070BD0000004C00403C00002070B5134C26
:10C1800040F225552946204601F061F801280CD1DE
:10C190002946204601F02DF80D4D286828B120468B
:10C1A00001F0E2F82968C0B288470821204601F072
:10C1B00047F8012808D10821204601F017F8204649
:10C1C000BDE8704001F0D0B870BD000000500040E4
:10C1D0004800002010B501218CB00846FFF75EFC36
:10C1E000104C2046FFF742F90F4800900F480021FD
:10C1F000CDE901011020CDE9030180200590400028
:10C20000069080000790202008900002CDE90901E7
:10C2100069462046FFF7B4F901212046FFF71AF9D5
:10C220000CB010BD080002404C2401403001002039
:10C23000102803D2024931F81000704700207047DF
:10C240003001002010B586B0FFF7C4FF012148027D
:10C25000FFF748FC01210420FFF744FC01210820DE
:10C26000FFF740FC01211020FFF73CFC00248DF873
:10C270001740FF20ADF8140005A95048FFF7CCFA8D
:10C280000320ADF8140005A94D48FFF7C5FA3F207B
:10C29000ADF8140005A94B48FFF7BEFA01208DF850
:10C2A00004008DF805004FF46020CDE902040094ED
:10C2B0001020454C8DF8100069462046FEF7B4FF6B
:10C2C0000723012209212046FEF7D2FF072302227D
:10C2D00008212046FEF7CCFF072303220F2120462A
:10C2E000FEF7C6FF072304220E212046FEF7C0FFFB
:10C2F0000723052219462046FEF7BAFF0622072328
:10C3000011462046FEF7B4FF07231A4605212046B2
:10C31000FEF7AEFF0723082204212046FEF7A8FF00
:10C320000723092203212046FEF7A2FF07230A2242
:10C3300002212046FEF79CFF07230B220121204605
:10C34000FEF796FF07230C2200212046FEF790FF00
:10C350000D22072311462046FEF78AFF07230E22EF
:10C360000C212046FEF784FF07230F220B212046D5
:10C37000FEF77EFF072310220A212046FEF778FFF2
:10C3800001212046FEF737FF01212046FEF729FF55
:10C390002046FEF7A7FF2046FEF73EFF0028FAD111
:10C3A0002046FEF7AEFF2046FEF72FFF0028FAD109
:10C3B00001212046FEF79BFF06B010BD000801409A
:10C3C000000C014000100140002401401CB501F2A6
:10C3D000FF3240F2FF739A421DD2002901DCC1F105
:10C3E00000014FF0200289B28DF800208DF8011075
:10C3F0004FEA11218DF8021003DA41F004018DF8A3
:10C4000002106B464FF003024FF0050100F038FEBA
:10C41000052000F081FE1CBDF8B5494C2088400481
:10C4200003D50E210320FFF7E3F92088800403D50C
:10C430000D210320FFF7DCF92088000403D50F212C
:10C440000320FFF7D5F92088C00403D50C21032071
:10C45000FFF7CEF904258DF803502078394E0006F9
:10C460000AD58020ADF8000069463046FFF7D4F9C0
:10C4700007210020FFF7BCF9207840060AD54020AC
:10C48000ADF8000069463046FFF7C6F906210020E6
:10C49000FFF7AEF9207880060AD52020ADF800001D
:10C4A00069463046FFF7B8F905210020FFF7A0F9EB
:10C4B0002078C0060AD51020ADF800006946304645
:10C4C000FFF7AAF904210020FFF792F920781E4E09
:10C4D00000070AD50820ADF8000069463046FFF78E
:10C4E0009BF903210220FFF783F92078400709D543
:10C4F000ADF8005069463046FFF78EF90221084634
:10C50000FFF776F9207880070AD50220ADF8000001
:10C5100069463046FFF780F901210220FFF768F9EC
:10C520002078C0070AD00120ADF8000069463046E7
:10C53000FFF772F900210220FFF75AF9F8BD000059
:10C5400060000020000801400010014007484FF43F
:10C55000804101604900016005480121016002211C
:10C56000016008210160102101607047100801403E
:10C570001014014008B501216520FFF7B3FA01212D
:10C580001048FFF79BF9FFF7E1FF10208DF803003B
:10C5900003208DF802008003ADF8000069460A48C8
:10C5A000FFF73AF91B20ADF8000069460748FFF78E
:10C5B00033F94FF44050ADF8000069460448FFF7E6
:10C5C0002BF908BD000430000008014000140140B0
:10C5D00000180140FFF7CEBF38B501212020FFF73A
:10C5E00081FA4FF47040ADF8000048208DF8030048
:10C5F00069460D48FFF710F90C4C04212046FFF75F
:10C6000089F901214020FFF76DFA0420ADF8000000
:10C6100002208DF8020010208DF8030069462046A4
:10C62000FFF7FAF838BD000000140140001801407F
:10C6300000B5002000F008F80248002101704170A8
:10C6400000BD000068000020F0B50746402103202F
:10C65000FFF762F900244FF4AF7600210520FFF7C1
:10C660005BF921460620FFF757F900253846FFF70A
:10C6700081F93046FEF7AEFF6D1CEDB2102DF5D3FB
:10C68000641CE4B2402CE8D3F0BD000010B5FFF705
:10C6900097F93D4C402363616420FEF78EFF2361D0
:10C6A0006420FEF78AFF00210846FFF735F90021D4
:10C6B0000120FFF731F97B210220FFF72DF900213E
:10C6C0000320FFF729F900210420FFF725F90021B5
:10C6D0000520FFF721F900210620FFF71DF90021B1
:10C6E0000720FFF719F900210820FFF715F90021AD
:10C6F0000920FFF711F900210A20FFF70DF90021A9
:10C700000B20FFF709F900210C20FFF705F90021A4
:10C710000D20FFF701F900210E20FFF7FDF80021A1
:10C720000F20FFF7F9F800211320FFF7F5F800219B
:10C730001420FFF7F1F800211520FFF7EDF8002194
:10C740001620FFF7E9F800211720FFF7E5F8002190
:10C750001820FFF7E1F82C211020FFF7DDF8242145
:10C760001220FFF7D9F8F8211120FFF7D5F80221A0
:10C770000120FFF7D1F8002000F008F8FFF758FF7C
:10C780008020206110BD00000010014008B1FB2195
:10C7900000E0F8211120FFF7BFB800002DE9F843B1
:10C7A0004FF430414FF00060FFF76EF94FF4C06076
:10C7B000FFF760F95C484FF47A7101250068B0FB1F
:10C7C000F1F0B0F1807F7DD220F07F414FF0E0208A
:10C7D000491E4161554AF02182F8141D00268661E8
:10C7E000072707618DF80160514C8DF802608DF8C4
:10C7F000035020784FF00608C00704D08DF8008061
:10C800006846FFF705F92078800704D58DF8007099
:10C810006846FFF7FDF82078400705D508208DF819
:10C8200000006846FFF7F4F82078000705D50920D6
:10C830008DF800006846FFF7EBF82078C00605D5B4
:10C840000A208DF800006846FFF7E2F8208810F40F
:10C85000787F05D017208DF800006846FFF7D8F8DC
:10C86000208810F47C4F05D028208DF80000684601
:10C87000FFF7CEF81C208DF800008DF801508DF8E0
:10C8800002608DF803506846FFF7C2F81D208DF84E
:10C89000000002208DF801008DF802608DF8035031
:10C8A0006846FFF7B5F82348007870B125208DF869
:10C8B000000004208DF801008DF802608DF803500F
:10C8C000684600E02FE0FFF7A3F81B48007860B14E
:10C8D00034208DF8000005208DF801008DF80260ED
:10C8E0008DF803506846FFF793F81448007860B15C
:10C8F00035208DF8000003208DF801008DF80260CE
:10C900008DF803506846FFF783F80C208DF800007F
:10C910008DF801808DF802608DF803506846FFF7AE
:10C9200077F8BDE8F883FEE7140000200FE000E090
:10C93000600000202800002034000020400000207B
:10C940002DE9FF4101210820FFF7CCF80121042047
:10C95000FFF7B0F822484021016080210160851571
:10C9600005604115016018208DF80F0003208DF837
:10C970000E004FF47070ADF80C00194803A9103880
:10C98000FEF74AFF174F3846FFF7C2F9002445F675
:10C99000C0500226ADF80400ADF80060ADF80240CA
:10C9A000ADF806408DF8084069463846FFF76CFB45
:10C9B0000D486021018001214180848042F6E061C0
:10C9C000C180068144818581C48101213846FFF7F9
:10C9D0008AF901213846FFF790F9BDE8FF81000090
:10C9E000100C0140000800400403002010B5FFF7C0
:10C9F0004DF9FFF7D3FEFFF7EFFDFFF723FCFFF73D
:10CA000045FEFFF7E7FDFFF79BFFFFF705FD00F091
:10CA1000C3F9BDE8104000F001B800002DE9F04175
:10CA200088B001210220FFF745F83E4E3046FFF75F
:10CA30006FF94720ADF81000002444F62060ADF8EF
:10CA40001400ADF81240ADF816408DF8184004A956
:10CA50003046FFF719FB344D2020ADF80000ADF84B
:10CA6000084028684FF480384FF6FF77404500D3E0
:10CA700038462E4CADF80600207818B1694630468D
:10CA8000FFF712FA6868404500D33846ADF8060053
:10CA9000607818B169463046FFF746FAA868404505
:10CAA00000D33846ADF80600A07818B16946304684
:10CAB000FFF77AFAE868404500D20746ADF80670FD
:10CAC000E07818B169463046FFF7ACFA1F213046CE
:10CAD000FFF706F9207820B1012202213046FFF746
:10CAE000DBF9607820B1012204213046FFF7D4F948
:10CAF000A07820B1012208213046FFF7CDF9E07877
:10CB000020B1012210213046FFF7C6F9012211465B
:10CB10003046FFF7C1F901213046FFF7E4F808B0CD
:10CB2000BDE8F08100040040F40200204C00002029
:10CB30002DE9F047774C01212046FFF7A1F9A0B17C
:10CB40007548006808B100F01DFEFEF7C7FD734888
:10CB5000006820B97248006808B100F019FC20464E
:10CB6000BDE8F0470121FFF7BBB80221A2462046ED
:10CB7000FFF786F96B4F002607F1180507F1080843
:10CB80004FF6FF79A5F1080468B302215046FFF77C
:10CB9000A7F8DFF880A128880AF1340A68B920884C
:10CBA000C8B938882080B8F8000028805E4801683D
:10CBB00009B100208847288850B1BAF8002002EB5C
:10CBC0000901AAF800102888401E2880BDE8F087D7
:10CBD00020880028FAD0BAF8001022881144AAF858
:10CBE00000102680F2E704215046FFF749F960B3B0
:10CBF00004215046FFF774F8DFF818A168880AF19D
:10CC0000380A68B96088C0B978886080B8F80200CE
:10CC100068804648016809B101208847688848B1A2
:10CC2000BAF8002002EB0901AAF800106888401E3B
:10CC30006880CBE760880028C8D0BAF80010628806
:10CC40001144AAF800106680C0E708215046FFF79B
:10CC500017F960B308215046FFF742F8DFF8B4A097
:10CC6000A8880AF13C0A68B9A088C0B9B888A08031
:10CC7000B8F80400A8802E48016809B1022088474E
:10CC8000A88848B1BAF8002002EB0901AAF8001000
:10CC9000A888401EA88099E7A088002896D0BAF8F6
:10CCA0000010A2881144AAF80010A6808EE7102177
:10CCB0005046FFF7E5F8002888D010215046FFF7CE
:10CCC0000FF8DFF850A0E8880AF1400A68B9E08858
:10CCD000C0B9F888E080B8F80600E8801548016817
:10CCE00009B103208847E88848B1BAF8002002EB70
:10CCF0000901AAF80010E888401EE88066E7E0888D
:10CD0000002896D0BAF80010E2881144AAF8001062
:10CD1000E6805BE7000400401C01002010010020B9
:10CD2000200100207400002050000020540000204A
:10CD3000580000205C00002010B501218CB008468E
:10CD4000FEF7ACFE124C2046FEF790FB1148002186
:10CD5000CDE900011020CDE902018020CDE90410C9
:10CD60008001CDE90810069107910A916946204695
:10CD7000FEF706FC012202212046FEF7F9FB0548DA
:10CD800001228021001F00F053FA0CB010BD0000FA
:10CD90001C000240044800402DE9F04F87B00121FB
:10CDA00044F20500FEF79EFE4FF40075ADF800500A
:10CDB0000326A34C8DF802604FF018098DF80390FC
:10CDC00069462046FEF728FD2715ADF800704FF0A4
:10CDD000040A8DF803A069462046FEF71DFD994818
:10CDE0000024DFF8648200680190ADF80C400C204C
:10CDF000ADF80840ADF80E00ADF81440ADF818508D
:10CE0000ADF80A40ADF81040ADF81640ADF81A4044
:10CE100005A9404600F0F3F901A9404600F04EFA9A
:10CE20000121404600F0FAF98848007828B1012233
:10CE300040F22551404600F029FA0121C804FEF7CE
:10CE400039FE01211120FEF74DFEADF80070BB4602
:10CE50007F4F8DF80260B0468DF8039069463846E2
:10CE6000FEF7DAFCF814ADF8000056468DF803A082
:10CE700069463846FEF7D0FC7648DFF8DCA10C277F
:10CE800000680190ADF80840ADF80C40ADF81440D2
:10CE9000ADF81850ADF80A40ADF81040ADF80E707E
:10CEA000ADF81640ADF81A4005A9504600F0A7F9B4
:10CEB00001A9504600F002FA0121504600F0AEF9F7
:10CEC0006648007828B1012240F22551504600F012
:10CED000DDF901210805FEF7EDFD01213120FEF706
:10CEE00001FE4FF48050ADF800008DF80280C2467C
:10CEF000C8468DF8039069465548FEF78DFCADF89D
:10CF000000608DF8036069465548FEF785FC55487A
:10CF1000DFF8549105A900680190ADF80840ADF81C
:10CF20000C40ADF81440ADF81850ADF80A40ADF81B
:10CF30001040ADF80E70ADF81640ADF81A404846F6
:10CF400000F05DF94021484600F050F901A948463B
:10CF500000F0B4F90121484600F060F94348007838
:10CF600028B1012240F22551484600F08FF90121F5
:10CF70000820FEF7B7FD01214020FEF7B3FD012197
:10CF80008804FEF797FDADF800B08DF802A08DF88B
:10CF90000380DFF8DC8069464046FEF73DFC4FF435
:10CFA0000060ADF800008DF8036069464046FEF76A
:10CFB00033FC3048016821F400410160016821F42C
:10CFC000804101604FF48040DFF8A880ADF8000098
:10CFD0001026A8F10C088DF8036069464046FEF75C
:10CFE0001BFCF002ADF800008DF803606946404676
:10CFF000FEF712FC20480190ADF80840ADF814404F
:10D00000ADF81850ADF80A40ADF80C40ADF810403E
:10D01000ADF81640ADF81A40184CADF80E7005A9E1
:10D02000204600F0ECF801A9204600F047F9012164
:10D03000204600F0F3F8FFF77FFE07B0BDE8F08F61
:10D04000000801402C00002000380140280000208A
:10D050000010014038000020004C00403400002047
:10D060000014014044000020005000404000002017
:10D07000000C01400C18014040420F0000480040E5
:10D080002DE9F04F224D2E786C78771EBC423CD0B3
:10D090000EB9132C39D0AB461E4EC4EBC40505EBBC
:10D0A000450909EB0605FF276F70AF70E87029711D
:10D0B00047186A713A44B246D7B2C4EBC406052099
:10D0C000002206EB46065644891E0DE006EB0008DA
:10D0D00013F802C088F801C013F802C0401C67446E
:10D0E000521C80B2FFB2D2B28A42EFDB0544FB434E
:10D0F0006B70401C0AF80900641CE0B28BF8010058
:10D10000142802D100208BF80100BDE8F08F000048
:10D110006B000020500100204FF4FA5206E000217D
:10D12000401E00BF491C89B29142FAD30028F6D1B3
:10D13000704706E00021401E00BF491C89B2082943
:10D14000FAD30028F6D1704770B5134C40F225553C
:10D150002946204600F07BF801280CD129462046BC
:10D1600000F047F80D4D286828B1204600F0FCF883
:10D170002968C0B288470821204600F061F80128DC
:10D1800008D10821204600F031F82046BDE8704063
:10D1900000F0EAB870BD0000003801403000002007
:10D1A00070B5114C40F225552946204600F04FF845
:10D1B000012809D12946204600F01BF8204600F03E
:10D1C000D3F8C0B2FEF7A2F80821204600F038F8E4
:10D1D000012808D10821204600F008F82046BDE8C3
:10D1E000704000F0C1B870BD00480040C9430180E4
:10D1F00070470A0A01219140C9430180704710B568
:10D20000038A4FF2FF0213400A884C8822438C881D
:10D21000C9880C4322431A43028210BD0029818928
:10D2200002D041F4005101E021F4005181817047A6
:10D23000002A828A01D00A4300E08A438282704732
:10D240000246002012880A4200D00120704730B503
:10D2500001F01F0201240025C1F3421304FA02F277
:10D26000012B0FD0022B0FD0838A4FEA11210088A7
:10D27000134204FA01F400EA040001D000B10125D0
:10D28000284630BD8389F0E7038AEEE710B5C1F385
:10D29000421301F01F040121A140012B07D0022BF2
:10D2A00007D01430002A026805D00A4304E00C308D
:10D2B000F8E71030F6E78A43026010BD30B5044647
:10D2C000008A85B00D464CF6FF710840E98801439D
:10D2D0002182A1894EF6F3100140A8882A891043C3
:10D2E0006A890A431043A081A08A4FF6FF41084093
:10D2F000A9890143A1826846FEF70CFC19488442C3
:10D3000001D1039800E00298A189090400EBC00153
:10D3100001EB0010296801D5490000E08900B0FB4D
:10D32000F1F06422B0FBF2F109010B096FF018056E
:10D330006B4300EB8300A3891D044FF0320306D535
:10D3400003EBC000B0FBF2F000F0070005E003EBD8
:10D350000010B0FBF2F000F00F000843208105B090
:10D3600030BD0000003801408088C0F308007047DD
:10D3700002E008C8121F08C1002AFAD1704770479E
:10D38000002001E001C1121F002AFBD170470000FC
:10D390001C4840F24C4102688A4201DD012103E051
:10D3A000C2688A4202DD022141647047D0E9061258
:10D3B000114440F6FC02914204DC026B4FF47A7196
:10D3C0008A4201DA0321EFE743684FF49662934201
:10D3D00002DCC36B8B4201DA0421E5E70369934267
:10D3E00002DC436B8B4201DA0521DDE7836893425F
:10D3F00001DD0621D8E7826B8A4201DA0821D3E7F2
:10D400000021D1E7D000002070B54FF47A76144C9B
:10D410004FF42F751DE000BF00F0B4F9FEF75EF980
:10D42000206AB04202DC606AB04208DD0D48014665
:10D4300000F080F9BDE870401E20FFF76DBE206C43
:10D4400000280CD12846294600F074F90A20FFF77D
:10D4500063FE206C002802D1606C0028DCD170BD16
:10D46000D0000020E0FCFFFF2DE9F047FFF7BEFAF7
:10D4700000250F4FDFF83C800F4CDFF840A001265D
:10D480004FF47A793E60C8F80050206848450ADABF
:10D49000DAF80010494506DA28B121B100F010F899
:10D4A0000020BDE8F0870A20FFF736FEEAE700001B
:10D4B0001C01002020010020040100200C0100209C
:10D4C00000F0A6F9DFF864B24FF42F76DFF860922F
:10D4D00001274FF49675C6F1000A4C46C9F8507002
:10D4E00000F0B8F9606C0028206C04D000287DD0D2
:10D4F000606C10B1C8E00028F2D0206C012808D17F
:10D500005846594600F016F92846FFF705FE00F088
:10D51000F7F9206CA046022808D15846594600F079
:10D5200009F9FA20FFF7F8FD00F0DAF9D8F8400021
:10D53000032809D14FF4FA70014600F0FBF82846A1
:10D54000FFF7EAFD00F0DCF9D8F84000042809D123
:10D550004FF4FA70014600F0EDF82846FFF7DCFDC5
:10D5600000F0BEF9D8F84000052809D150465146D0
:10D5700000F0E0F84FF4C870FFF7CEFD00F0E2F9DC
:10D58000D8F84000062809D13046314600F0D2F8DC
:10D590004FF4C870FFF7C0FD00F0D4F9D8F8400090
:10D5A000072809D100F0CEF94FF41670014600F0BB
:10D5B000C1F82846FFF7B0FDD8F84000082809D187
:10D5C00000F0B0F94FF41670014600F0B3F8FA20FD
:10D5D000FFF7A2FDD8F84000092811D15046514666
:10D5E00000F0A8F86420FFF797FD00E054E000F099
:10D5F00099F92846294600F09DF86420FFF78CFD34
:10D60000D8F840000A280FD13046314600F092F891
:10D610006420FFF781FD00F085F92846294600F0D7
:10D6200089F86420FFF778FDD8F840000B280FD167
:10D630003046314600F07EF86420FFF76DFD00F0C3
:10D6400081F92846294600F075F86420FFF764FD4B
:10D65000D8F840000C280FD15046514600F06AF827
:10D660006420FFF759FD00F06DF92846294600F0C7
:10D6700061F86420FFF750FDD8F8400060B1D8F899
:10D68000440000283FF429AF28486438014600F0E0
:10D6900051F83220FFF740FD606C0028F2D0216C79
:10D6A00000297FF41AAF012803D100F019F9FFF720
:10D6B000ABFE606C022803D100F022F9FFF7A4FE54
:10D6C000606C032801D1FFF79FFE606C042803D132
:10D6D00000F028F9FFF798FE606C052803D100F0F0
:10D6E00031F9FFF791FE606C062807D1002108464A
:10D6F00000F020F800F0C2F8FFF786FE606C072803
:10D7000007D10021084600F015F800F0C7F8FFF730
:10D710007BFE606C0828C4D10021084600F00AF89E
:10D7200000F0CEF8FFF770FED7E600000CFEFFFF1A
:10D73000D000002070B54FF48066114C721ED543A6
:10D740006B1CB042C4E9150101DB626502E0A8422E
:10D7500000DC6365B14201DBA26502E0A94200DCA6
:10D76000A365B4F858005434404201B20120FEF7DA
:10D770002DFE2088BDE8704001B20220FEF726BED3
:10D78000D000002010B50020FEF752FD1F4C206095
:10D790000120FEF74DFD60600220FEF749FDA0600C
:10D7A0000320FEF745FDE0600420FEF741FD206107
:10D7B0000520FEF73DFD60610620FEF739FDA06102
:10D7C0000720FEF735FDE0610820FEF731FD2062FD
:10D7D0000920FEF72DFD60620A20FEF729FDA062F8
:10D7E0000B20FEF725FDE0620C20FEF721FD2063F3
:10D7F0000D20FEF71DFD60630E20FEF719FDA063EE
:10D800000F20FEF715FDE06310BD0000D0000020E2
:10D8100010B50E4C00200146E064FFF78BFF64203A
:10D82000FFF77AFC0A480146FFF784FF4FF47A704D
:10D83000FFF772FC00210846FFF77CFF6420FFF72A
:10D840006BFC00F04DF80120E06410BDD00000201A
:10D8500001FCFFFF70B54FF4FA75074C06E028464F
:10D860002946FFF767FF3220FFF756FCD4E9100185
:10D870000843F4D070BD0000D000002010B54FF474
:10D8800048714842FFF756FF4FF4F070FFF744FC31
:10D890000021BDE810400846FFF74CBF074910B50E
:10D8A0004842FFF747FF4FF4F070FFF735FC0021C7
:10D8B000BDE810400846FFF73DBF0000E0FCFFFF59
:10D8C00010B54FF448714842FFF734FF40F2EE20A4
:10D8D000FFF722FC0021BDE810400846FFF72ABFF1
:10D8E00010B54FF4FA714842FFF724FF4FF4F0707F
:10D8F000FFF712FC0021BDE810400846FFF71ABFF1
:10D90000074910B54842FFF715FF4FF4F070FFF7D5
:10D9100003FC0021BDE810400846FFF70BBF0000E4
:10D920000CFEFFFF10B54FF42F714842FFF702FFC6
:10D930004FF49670FFF7F0FB0021BDE81040084659
:10D94000FFF7F8BE074910B54842FFF7F3FE4FF462
:10D95000C870FFF7E1FB0021BDE810400846FFF763
:10D96000E9BE0000E0FCFFFF88D9000800000020AD
:10D97000300100008CB10008ACD900083001002053
:10D98000E805000080D3000845020406082D0102C6
:10D99000030404150607080984A24A04791441A364
:0CD9A000C201B24BA9180153038A2003F6
:040000050800B1310D
:00000001FF
